:100000000C9444000C9456000C9456000C9456002A
:100010000C9456000C9456000C9456000C94560008
:100020000C9456000C9456000C9456000C945600F8
:100030000C9456000C9456000C9456000C945600E8
:100040000C9456000C9456000C9456000C945600D8
:100050000C9456000C9456000C9456000C945600C8
:100060000C9456000C9456003C024E0208025202B8
:100070000C021002140218021C02200224022802A0
:100080002C0230023402380211241FBECFEFD8E018
:10009000DEBFCDBF21E0A0E0B1E001C01D92A234DF
:1000A000B207E1F70E947C050C94A0050C940000B7
:1000B00090911A01913009F0D4C080910B01811107
:1000C000CBC080912301813009F0C6C04091070167
:1000D000509108016091090170910A014F5F5F4FD3
:1000E0006F4F7F4F413127E252076105710548F498
:1000F00040930701509308016093090170930A012E
:1001000008C0109207011092080110920901109284
:100110000A014091240150912501609126017091BE
:1001200027014F5F5F4F6F4F7F4F413187E2580785
:100130006105710548F440932401509325016093B3
:1001400026017093270188C0109224011092250186
:1001500010922601109227017FC010920701109281
:1001600008011092090110920A0180911C01882354
:1001700049F010922401109225011092260110924C
:1001800027017BC01092200101C080E040913E0118
:1001900050913F0160914001709141014F5F5F4F6D
:1001A0006F4F7F4F413A26E8520721E06207710501
:1001B00048F440933E0150933F0160934001709397
:1001C00041010FC040EA56E861E070E040933E0113
:1001D00050933F01609340017093410121E02093CF
:1001E0002001882369F140913A0150913B016091CF
:1001F0003C0170913D014F5F5F4F6F4F7F4F413A20
:1002000086E8580781E06807710548F440933A0191
:1002100050933B0160933C0170933D0111C040EA53
:1002200056E861E070E040933A0150933B016093DF
:100230003C0170933D0180912001826080932001F8
:10024000913031F580911901811122C080912001F6
:10025000846080932001089520911E0121117DCF9B
:1002600012C020911E0180911C01811106C0822FB5
:1002700010922001811189CFE3CF10922001222317
:1002800009F4B1CF83CF80911C01811172CFF0CFDF
:10029000089584B18C6284B981E58CBD2A9A089551
:1002A0008EBD00000DB407FEFDCF8EB5089580E031
:1002B0000E94500108956093060190E0A0E0B0E034
:1002C0008093150190931601A0931701B093180124
:1002D00040931F01A22FB32FEDE0F1E025E131E0C3
:1002E0008D918193E217F307D9F780E008952A985A
:1002F00080EC0E9450012A9A80E593EC000001975F
:10030000E9F70895CF93C82F2A9883E00E945001FF
:100310008C2F0E9450010E9457012A9ACF91089574
:100320001F93CF93DF93182FD62FC42F2A9885E0E1
:100330000E945001812F0E9450018D2F0E94500178
:100340008C2F0E9450012A9ADF91CF911F9108951E
:100350001F93CF93DF931F92CDB7DEB7182F19826B
:10036000482F60EE8FE00E9490018FE00E94820192
:1003700089838981807E8983998181E0191301C0F5
:1003800080E00F90DF91CF911F910895CF93DF937D
:10039000D82FC62F2A9882E00E9450018D2F0E94EC
:1003A00050018C2F0E9450012A9ADF91CF9108951D
:1003B000CF93C0E360E08C2F0E94C60160E080E133
:1003C0008C0F0E94C60160E080E28C0F0E94C60183
:1003D000CF5FCE3379F760E080E60E94C60160E02F
:1003E00080E70E94C601CF91089548E068E08150FF
:1003F0000E9490010895CF93DF9390E0FC01319724
:10040000E031F10508F048C0EC5CFF4F0C949A0510
:10041000D7E8CFEF6FE033C0D7E0CEEB69E02FC075
:10042000D7E8CFEF67E02BC0D7E8CAEF67E027C077
:10043000D7E8CFEF63E023C0D7E0CEEB63E01FC087
:10044000D7E0CDEA63E01BC0D7E8CAEF63E017C08E
:10045000D6E8C0EF63E013C0D7E8CAEF61E00FC091
:10046000D5E8C1EF61E40BC0D6E8C0EF60E007C09B
:10047000D2E8C0ED60E003C0D7E8CFEF6FE38AE2D7
:100480000E94C6016C2F89E20E94C6016D2F88E28E
:100490000E94C60180E00AC081E008C0D7E8CFEF23
:1004A0006FE1EDCFD5E8C1EF6FE0E9CFDF91CF91FC
:1004B00008951F93CF93DF931F92CDB7DEB7182F08
:1004C000198280E80E94A80189838981882339F0F4
:1004D00080E593EC00000197E9F7898140C080E551
:1004E00093EC00000197E9F732C080E593EC00003F
:1004F0000197E9F7898133C000000197E9F7898105
:10050000811123C00E94D80163E08BE20E94C601E2
:1005100044E064E680E60E94900140E060E680E707
:100520000E94900180E00E94A8018983898188232C
:1005300039F080E593EC00000197E9F789810FC05D
:1005400080E593EC00000197E9F7898108C0812FCD
:100550000E94FB018111C9CF80E593ECCDCF0F90B4
:10056000DF91CF911F910895CF93DF931F92CDB765
:10057000DEB719820E9459028983998181E0911125
:1005800001C080E00F90DF91CF910895CF93C82FE5
:100590000E9449010E9477018C2F0E94B40291E0D1
:1005A000811190E0892FCF910895AF92BF92CF92A1
:1005B000DF92FF920F931F93CF93DF9300D01F9290
:1005C000CDB7DEB75C0180E3898380E48A8380E570
:1005D0008B83F50110828E010F5F1F4F6E01F4E0D7
:1005E000CF0ED11CF801F1908F018F2D0E94820156
:1005F000982F987083FD04C0F394F501F08204C035
:100600000C151D0579F792E0892F0F900F900F9030
:10061000DF91CF911F910F91FF90DF90CF90BF900E
:10062000AF900895EF92FF920F931F93CF93DF93B4
:10063000C82F7B01142F2A9882E00E9450018C2F32
:100640000E945001112371F0E7011150012F10E0B9
:100650000F5F1F4F0E0D1F1D89910E945001C01783
:10066000D107D1F72A9ADF91CF911F910F91FF9077
:10067000EF9008950F931F93CF93DF9300D000D096
:10068000CDB7DEB7613011F52C833B8389019A0128
:100690000F2EFFE03695279517950795FA95D1F718
:1006A000F02D902F9C71990F990F990F602F637007
:1006B000960F98609A8398013695279532952295E2
:1006C0002F7023273F70232729830EC0B901769509
:1006D0006795769567957695679569832295220F3C
:1006E000207E2A831C821B8244E0BE016F5F7F4F05
:1006F0000E9412030F900F900F900F90DF91CF91F7
:100700001F910F910895CF93C82F40911F016DE065
:1007100071E085E08C0F0E94120380911B018130F3
:1007200029F480911F01806480931F0160911F0153
:1007300084E08C0F0E94C6012091150130911601B2
:100740004091170150911801609106018C2F0E9471
:100750003A03CF9108950F931F93CF93DF931F9286
:10076000CDB7DEB700E010E0CE0101960E94D502C1
:100770000F5F1F4F823029F402331105A9F786E07D
:100780001FC002331105C9F089810E94830389814A
:100790000E94F50100E010E00F5F1F4F89810E9469
:1007A000820183FF05C002331105B1F787E008C05D
:1007B0000233110521F080E003C086E001C087E02C
:1007C0000F90DF91CF911F910F9108950E945B01CF
:1007D0000E94AB0308952A9880EB0E9450010E946A
:1007E00057012A9A08950E94EB03807C11F484E05B
:1007F000089583E00895EF92FF920F931F93CF9394
:10080000DF93C82F7B01142F493008F018E02A9895
:1008100083E00E9450018C2F0E945001112371F03F
:10082000E7011150012F10E00F5F1F4F0E0D1F1D2C
:100830000E9457018993C017D107D1F72A9ADF91F7
:10084000CF911F910F91FF90EF900895EF92FF923B
:100850000F931F93CF93DF9300D000D0CDB7DEB7B7
:100860007B018A0144E0BE016F5F7F4F0E94FB0362
:100870002A81898190E0880F991F880F991F880F1E
:10088000991F322F329536953770830F911D092E9F
:10089000000CAA0BBB0BF80180839183A283B38366
:1008A00023FF26C0880F991FAA1FBB1F880F991FFF
:1008B000AA1FBB1F2370820F911DA11DB11DBA2F4E
:1008C000A92F982F88272B81820F911DA11DB11D63
:1008D000BA2FA92F982F88272C81820F911DA11D37
:1008E000B11D80839183A283B38381E0F70180836C
:1008F0000F900F900F900F90DF91CF911F910F915C
:10090000FF90EF900895CF93C82F45E151E066E046
:1009100071E00E9426048FEF8C0F0E948201809369
:100920001B0184E08C0F0E94820190911B0193FFB8
:1009300004C091E090931B0102C010921B01482F4C
:100940004F7040931F016DE071E085E08C0F0E94B5
:10095000FB03CF9108950E94EB0386FF0AC081E656
:100960000E94830440E061E08CE20E94900180E0FC
:100970000895882354F481E70E94830440E062E0F4
:100980008CE20E94900180E00895807C11F484E064
:10099000089580E008950F931F93CF93DF938C0108
:1009A000EB010E94AB04811119C090911F01F80165
:1009B000908390911F01992399F090E0292F30E0C6
:1009C000F901E35FFE4F4081FE01E20FF31F408318
:1009D0009F5F20911F01921788F302C0F8011082D7
:1009E000DF91CF911F910F9108950E94C602089543
:1009F0009B0148E060E00E94E6030895CF93DF93F7
:100A00001F92CDB7DEB7BC01CE0101960E94CB0488
:100A10000F90DF91CF9108950E94F3038330C9F5C1
:100A200080E391E00E94FE048091150180933901DA
:100A3000863189F5E8E2F1E08085982F93709093F4
:100A40000B01982F9695969593709093230184FBB4
:100A5000992790F990930C0185FB992790F9909331
:100A6000210186FB882780F980932201818580936C
:100A70001A0180911E01882301F0E8E2F1E08091E3
:100A80002001808385E1808BBF010E94F80481E012
:100A9000089580E0089580E00895EF920F9390917B
:100AA0000501981314C090910401961310C0909101
:100AB000030194130CC090910201921308C090910D
:100AC0000101901304C0909100019E1591F0809354
:100AD00005016093040140930301209302010093F8
:100AE0000101E092000180910B01811102C010927E
:100AF00004010F91EF9008958FE00E94F5040E9489
:100B00000C051092190110921E0110921C011092F6
:100B10001D010E945800E090220100911A012091CD
:100B2000210140910C016091230180910B010E94F1
:100B30004D05E5CFEE0FFF1F0590F491E02D0994D0
:040B4000F894FFCF57
:00000001FF
