:020000040000FA
:0400000080313828EB
:100008007E1480318B1E09280A2836280B1D0D28DE
:100018000E283628200095010B110130A407003066
:10002800A53D2508803AF00080307002031D1E2887
:100038007D302402031C2128222836282000A40110
:10004800A5010130AC070030AD3D3C302C062D0435
:10005800031D2F28302836280130AE070030AF3D69
:10006800AC01AD017E10090080313A28A830840027
:10007800873085003A308600003087001630873197
:10008800F727803120308400003085001A308F3106
:10009800FA2780317E102000803152288731E027EE
:1000A80080318F31E82780318731E92780318731E6
:1000B800D32780318531F325803108302000D000E6
:1000C8000030D10087318D2780318231A4228031E0
:1000D8008331F823803187311B27803171087204FE
:1000E800031977287828B52801302000B207003096
:1000F800B33D3C3032063304031D83288428862808
:10010800B201B3010130D3000030D4000A30F1004D
:100118000030F2003308F4003208F3008431E72499
:10012800803172082000D6007108D5008531462537
:10013800803105302000D3000030D4000A30F100AF
:100148000030F2003308F4003208F3008531A025AE
:10015800803172082000D6007108D5008531462507
:100168008031873167278031710872040319BD28EF
:10017800BE28FB2801302000B0070030B13D3C30DC
:1001880030063104031DC928CA28CC28B001B101A2
:100198000730D3000030D4000A30F1000030F200FC
:1001A8003108F4003008F3008431E7248031720804
:1001B8002000D6007108D5008531462580310330EE
:1001C8002000D3000030D4000A30F1000030F200E3
:1001D8003108F4003008F3008531A0258031720819
:1001E8002000D6007108D5008531462580312000D1
:1001F80026032704031D012902292D2A2F082B066F
:10020800031D08292E082A0603190B290C293F2942
:100218002F08AB002E08AA000830D3000030D40005
:100228000A30F1000030F2002F08F4002E08F30025
:100238008431E724803172082000D6007108D50087
:1002480085314625803106302000D3000030D400A7
:100258000A30F1000030F2002F08F4002E08F300F5
:100268008531A025803172082000D6007108D5009C
:1002780085314625803120002D082906031D462991
:100288002C082806031949294A297D292D08A9007F
:100298002C08A8000230D3000030D4000A30F10046
:1002A8000030F2002D08F4002C08F3008431E72414
:1002B800803172082000D6007108D50085314625A6
:1002C800803104302000D3000030D4000A30F1001F
:1002D8000030F2002D08F4002C08F3008531A02529
:1002E800803172082000D6007108D5008531462576
:1002F800803120002F083306031D84292E0832067A
:10030800031D872988296F282D083106031D8E298A
:100318002C083006031D912992296F28AE01AF01E0
:10032800AC01AD018F31EE2780310130F100003092
:10033800F2008731F027803100302000A300003020
:10034800A2000030A1000030A000A31BB52923089B
:10035800031DB629093021023D30223B031CB52973
:10036800B629B729C0290130A0070030A13D0030C7
:10037800A23D0030A33DA9290030F100F2008731E9
:10038800F02780312000A601A701AE01AF01AC0122
:10039800AD010830D3000030D4000A30F10000303D
:1003A800F2002F08F4002E08F3008431E72480318E
:1003B80072082000D6007108D500853146258031A5
:1003C80006302000D3000030D4000A30F10000309D
:1003D800F2002F08F4002E08F3008531A0258031A3
:1003E80072082000D6007108D50085314625803175
:1003F80002302000D3000030D4000A30F100003071
:10040800F2002D08F4002C08F3008431E724803131
:1004180072082000D6007108D50085314625803144
:1004280004302000D3000030D4000A30F10000303E
:10043800F2002D08F4002C08F3008531A025803146
:1004480072082000D6007108D50085314625803114
:100458006F28873141278031710872040319352AC2
:10046800362A6F2820003208E5006508F1000030C0
:100478008631F126803120003008E5006508F1005A
:1004880001308631F12680312000AE01AF01AC0188
:10049800AD010130F1000030F2008731F0278031E2
:1004A80000302000A3000030A2000030A10000307E
:1004B800A000A31B6B2A2308031D6C2AA03020026E
:1004C8008630213B0130223B031C6B2A6C2A6D2AA3
:1004D800762A0130A0070030A13D0030A23D00304F
:1004E800A33D5D2A0030F100F2008731F02780310A
:1004F80020003108803AE50080306502031D862A15
:10050800033030020318892A8A2A982A20003308DF
:10051800803AE50080306502031D942A01303202DA
:10052800031C972A982AA12A8F31F4278031013099
:100538002000A6000030A7006F286F2880313828D7
:100548002000E101E201E301E40100308731BE2728
:1005580082312000D900DA015908DF005A08E0008A
:100568006008B3005F08B20001308731BE278231CE
:100578002000D900DA015908E1005A08E2006208AF
:10058800B1006108B000320A33040319CC2ACD2A1D
:10059800D32A300A3104031DD22AD32AD72AB2011A
:1005A800B301B001B10102308731BE27823120008A
:1005B800D900DA015908DF005A08E0000330873112
:1005C800BE2782312000D900DA015908E1005A0813
:1005D800E2006008E4005F08E3000830E335E40D5A
:1005E800890BF22A6108E3046208E404630A031D24
:1005F800012B640A031D012B022B1A2BE301E401D2
:100608000130E3070030E43D6408D9005908F100DF
:1006180002308631F126823120006308D90059085A
:10062800F10003308631F12682312F2B0130E307A8
:100638000030E43D6408D9005908F10002308631E1
:10064800F126823120006308D9005908F1000330EF
:100658008631F126823101302000D3000030D400E9
:10066800E830F7000330F8006408FA006308F9007E
:1006780086318026823178082000D6007708D50098
:1006880085314625823105302000D3000030D40062
:100698006430F7000030F8006408F4006308F300E1
:1006A800E830F1000330F2008631BD26823172084D
:1006B800FA007108F9008631802682317808200016
:1006C800D6007708D5008531462582312000640898
:1006D800F4006308F300E830F1000330F2008631DB
:1006E800BD26823172082000DE007108DD00073067
:1006F800D3000030D4000A30F7000030F8005E085C
:10070800F4005D08F3006430F1000030F200863137
:10071800BD2682317208FA007108F90086318026F8
:10072800823178082000D6007708D5008531462523
:10073800823120006408F4006308F300E830F10017
:100748000330F2008631BD26823172082000DE00B7
:100758007108DD005E08F4005D08F3006430F10004
:100768000030F2008631BD26823172082000DC009C
:100778007108DB000330D3000030D4000A30F100E8
:100788000030F2005C08F4005B08F3008631BD26F7
:10079800823172082000D6007108D50085314625BF
:1007A800823100302000A3000030A2000030A100F8
:1007B8000030A000A31BEC2B2308031DED2B2030D9
:1007C8002002A130213B0730223B031CEC2BED2BF0
:1007D800EE2BF72B0130A0070030A13D0030A23DE1
:1007E8000030A33DDE2B08002000DC01DD010A30CB
:1007F800DA000030DB0001302000DC000030DD00D2
:1008080020005D08D4005C08D3005A08FF3ED500DC
:10081800FF305B3DD600853146258331013020000D
:10082800DC070030DD3D5D08803AD9008030590290
:10083800031D202C09305C02031C232C242C042CBF
:1008480000302000A3000030A2000030A1000030DA
:10085800A000A31B3B2C2308031D3C2C4030200286
:100868000D30213B0330223B031C3B2C3C2C3D2C00
:10087800462C0130A0070030A13D0030A23D0030D9
:10088800A33D2D2CFF30DA07FF30DB3D5B08803AB3
:10089800D90080305902031D532C01305A02031825
:1008A800562C572CFF2B01302000D3000030D400E9
:1008B8000A30F1000030F2003308F4003208F30087
:1008C8008431E724833172082000D6007108D500EE
:1008D80085314625833105302000D3000030D4000F
:1008E8000A30F1000030F2003308F4003208F30057
:1008F8008531A025833172082000D6007108D50003
:1009080085314625833107302000D3000030D400DC
:100918000A30F1000030F2003108F4003008F3002A
:100928008431E724833172082000D6007108D5008D
:1009380085314625833103302000D3000030D400B0
:100948000A30F1000030F2003108F4003008F300FA
:100958008531A025833172082000D6007108D500A2
:100968008531462583310130F1000030F2008731AE
:10097800F027833100302000A3000030A2000030AF
:10098800A1000030A000A31BD52C2308031DD62CE2
:10099800A03020028630213B0130223B031CD52C9D
:1009A800D62CD72CE02C0130A0070030A13D003018
:1009B800A23D0030A33DC72C0030F100F200873182
:1009C800F02783310800F701F21FEB2CEC2CF32CF5
:1009D800F109F209F10A0319F20AF701F70AF41FFB
:1009E800F62CF72C002DF309F409F30A0319F40A7D
:1009F8000130F5007508F706F801F901710872046D
:100A08000319072D082D372DF601F60A142D01308C
:100A1800F135F20D890B0C2D0130F5007508F6073C
:100A2800F21F172D182D0B2D0130F835F90D890BF4
:100A3800192D72087402031D232D71087302031CFB
:100A4800262D272D2C2D7108F3027208F43B7814FB
:100A58000130F236F10C890B2D2D0130F602031D01
:100A6800362D372D182D770803193B2D3C2D412D98
:100A7800F809F909F80A0319F90A7908F200780857
:100A8800F100080020005308540403194C2D4D2D83
:100A98009F2D003054020A30031953020318552DB4
:100AA800562D9F2D003056020A300319550203189F
:100AB8005E2D5F2D9F2D530354040319642D652D5E
:100AC8007A2D05305306540403196B2D6C2D7A2D9D
:100AD8000730530654040319722D732D7A2D0330F1
:100AE80053065404031D792D7A2D8D2D5408F200D8
:100AF8005308F1005508453E860087010108D700D4
:100B0800D8015708F3005808F40086313E2685318D
:100B18009F2D5408F2005308F10055083A3E86000C
:100B280087010108D700D8015708F3005808F400D6
:100B380086313E2685310800F701F41FA42DA52D26
:100B4800AC2DF309F409F30A0319F40AF701F70ABB
:100B5800F21FAF2DB02DB52DF109F209F10A0319D5
:100B6800F20A710872040319BA2DBB2DE42DF6019F
:100B7800F60AC72D0130F135F20D890BBF2D013072
:100B8800F5007508F607F21FCA2DCB2DBE2D720889
:100B98007402031DD12D71087302031CD42DD52DA9
:100BA800D92D7108F3027208F43B0130F236F10CCA
:100BB800890BDA2D0130F602031DE32DE42DCB2D30
:100BC80077080319E82DE92DEE2DF309F409F30A46
:100BD8000319F40A7408F2007308F10008002200EF
:100BE8000E1521008E100E118E1122000E110930E3
:100BF800F1000030F2000030F300F40086313E26A8
:100C0800853122000E150E110A30F1000030F20075
:100C18000030F300F40086313E26853122000E159F
:100C28000E110B30F1000030F2000730F3000030F5
:100C3800F40086313E26853122000E150E110C3047
:100C4800F1000030F2000130F3000030F40086318A
:100C58003E26853122000E150E110F30F1000030AE
:100C6800F2000030F300F40086313E268531220080
:100C78000E150800F901FA017208FA007108F90066
:100C88000830F935FA0D890B452E7308F9077408F1
:100C9800FA3DFF30F9050F30FA0522000E11103029
:100CA800FB000030FC000130F5000030F6007B0846
:100CB800FF3E890A612EF535F60D890B5F2E7908FE
:100CC8007505F7007A087605F8007708780403199F
:100CD8006E2E6F2E712E8E14722E8E108E158E1112
:100CE8000130FB020030FC3B7B087C04031D7D2E99
:100CF8007E2E572E0E1508002000D001D10177084E
:100D080078040319882E892EB82ED201D20A952E7E
:100D18000130F735F80D890B8D2E0130FB007B086B
:100D2800D207F81F982E992E8C2E0130D035D10D70
:100D3800890B9A2E78087A02031DA42E7708790267
:100D4800031CA72EA82EAD2E7708F9027808FA3BC7
:100D580050140130F836F70C890BAE2E0130D20250
:100D6800031DB72EB82E992E5108F8005008F70029
:100D78000800710872040319C22EC32EEC2EF60166
:100D8800F60ACF2E0130F135F20D890BC72E01304E
:100D9800F5007508F607F21FD22ED32EC62E72085C
:100DA8007402031DD92E71087302031CDC2EDD2E7C
:100DB800E12E7108F3027208F43B0130F236F10CAF
:100DC800890BE22E0130F602031DEB2EEC2ED32EFA
:100DD8007408F2007308F1000800F4002300951865
:100DE800F62EF72EF22E7408F200F3017208910025
:100DF80073089200710893003F30F200720895055D
:100E0800200003108B1F092F0A2F0B2F03148B139D
:100E18002300151555309600AA3096009514151123
:100E28002000031C182F192F1A2F8B1708002000D9
:100E38008C1D1F2F202F392F0130B8070030B93DE6
:100E48003908803AF300CE307302031D2D2F21306C
:100E58003802031C302F312F3E2F2000B801B90172
:100E68000130F1000030F200402FB801B901F10162
:100E7800F201402FF101F201080020000E1E452F5B
:100E8800462F5F2F0130B4070030B53D3508803A52
:100E9800F300CE307302031D532F21303402031C9C
:100EA800562F572F642F2000B401B5010130F100EF
:100EB8000030F200662FB401B501F101F201662F8E
:100EC800F101F201080020008E1E6B2F6C2F852F78
:100ED8000130B6070030B73D3708803AF300CE300E
:100EE8007302031D792F21303602031C7C2F7D2FBE
:100EF8008A2F2000B601B7010130F1000030F2005E
:100F08008C2FB601B701F101F2018C2FF101F2012A
:100F180008000030200051020F3003195002031856
:100F2800962F972FA72F22000E110A30F1000030BC
:100F3800F20020005108F4005008F30086313E26E4
:100F4800873122000E150800CF340334AE342F3415
:100F580063346D34ED340B34EF346F340034F534CE
:100F68006034B634F2346334D334D7347034F7345D
:100F7800F3340034F400640023009518C42FC52FFF
:100F8800BF2F7408F100F2017108910072089200F5
:100F98003F30F30073089505151413080800200066
:100FA80095012100951295110730950495120B179C
:100FB8000B118B128B130800210019088739703820
:100FC8009900FC3099059917080022000C100C12A2
:100FD80021000C100C120800710C2200031C0C12CA
:100FE80003180C160800FE0012001E00FE0BF82F56
:020FF8000034C3
:101FD00021008C168C158E160E1608002000950117
:101FE0000B118B128B130800200095010B118B161F
:101FF0008B170800640080010131890BFB2F00342E
:020000040001F9
:04000E0004D8FFDD36
:00000001FF
